{
  "contractName": "RideSharing",
  "abi": [
    {
      "inputs": [
        {
          "internalType": "address",
          "name": "",
          "type": "address"
        }
      ],
      "name": "DriverRatings",
      "outputs": [
        {
          "internalType": "uint256",
          "name": "",
          "type": "uint256"
        }
      ],
      "stateMutability": "view",
      "type": "function",
      "constant": true
    },
    {
      "inputs": [
        {
          "internalType": "address",
          "name": "",
          "type": "address"
        }
      ],
      "name": "DriverReward",
      "outputs": [
        {
          "internalType": "uint256",
          "name": "",
          "type": "uint256"
        }
      ],
      "stateMutability": "view",
      "type": "function",
      "constant": true
    },
    {
      "inputs": [
        {
          "internalType": "address",
          "name": "",
          "type": "address"
        }
      ],
      "name": "RideCompleted",
      "outputs": [
        {
          "internalType": "uint256",
          "name": "",
          "type": "uint256"
        }
      ],
      "stateMutability": "view",
      "type": "function",
      "constant": true
    },
    {
      "inputs": [
        {
          "internalType": "uint256",
          "name": "",
          "type": "uint256"
        }
      ],
      "name": "rideJoiningAmounts",
      "outputs": [
        {
          "internalType": "uint256",
          "name": "",
          "type": "uint256"
        }
      ],
      "stateMutability": "view",
      "type": "function",
      "constant": true
    },
    {
      "inputs": [
        {
          "internalType": "uint256",
          "name": "_fare",
          "type": "uint256"
        },
        {
          "internalType": "uint256",
          "name": "_capacity",
          "type": "uint256"
        },
        {
          "internalType": "string",
          "name": "_pickup",
          "type": "string"
        },
        {
          "internalType": "string",
          "name": "_dropoff",
          "type": "string"
        },
        {
          "internalType": "uint256",
          "name": "_departure",
          "type": "uint256"
        },
        {
          "internalType": "uint256",
          "name": "_rate",
          "type": "uint256"
        },
        {
          "internalType": "uint256",
          "name": "_distance",
          "type": "uint256"
        }
      ],
      "name": "addRide",
      "outputs": [],
      "stateMutability": "nonpayable",
      "type": "function"
    },
    {
      "inputs": [
        {
          "internalType": "uint256",
          "name": "_rideId",
          "type": "uint256"
        }
      ],
      "name": "getRide",
      "outputs": [
        {
          "internalType": "uint256",
          "name": "",
          "type": "uint256"
        },
        {
          "internalType": "uint256",
          "name": "",
          "type": "uint256"
        },
        {
          "internalType": "uint256",
          "name": "",
          "type": "uint256"
        },
        {
          "internalType": "address",
          "name": "",
          "type": "address"
        },
        {
          "internalType": "address[]",
          "name": "",
          "type": "address[]"
        },
        {
          "internalType": "enum RideSharing.STATUS",
          "name": "",
          "type": "uint8"
        }
      ],
      "stateMutability": "view",
      "type": "function",
      "constant": true
    },
    {
      "inputs": [],
      "name": "getAllRides",
      "outputs": [
        {
          "components": [
            {
              "internalType": "uint256",
              "name": "rideId",
              "type": "uint256"
            },
            {
              "internalType": "uint256",
              "name": "fare",
              "type": "uint256"
            },
            {
              "internalType": "uint256",
              "name": "totalFare",
              "type": "uint256"
            },
            {
              "internalType": "string",
              "name": "pickup",
              "type": "string"
            },
            {
              "internalType": "string",
              "name": "dropoff",
              "type": "string"
            },
            {
              "internalType": "address",
              "name": "driver",
              "type": "address"
            },
            {
              "internalType": "uint256",
              "name": "capacity",
              "type": "uint256"
            },
            {
              "internalType": "address[]",
              "name": "passengers",
              "type": "address[]"
            },
            {
              "internalType": "uint256",
              "name": "departure",
              "type": "uint256"
            },
            {
              "internalType": "uint256",
              "name": "distance",
              "type": "uint256"
            },
            {
              "internalType": "uint256",
              "name": "rate",
              "type": "uint256"
            },
            {
              "internalType": "enum RideSharing.STATUS",
              "name": "status",
              "type": "uint8"
            },
            {
              "internalType": "uint256",
              "name": "rating",
              "type": "uint256"
            }
          ],
          "internalType": "struct RideSharing.Ride[]",
          "name": "",
          "type": "tuple[]"
        }
      ],
      "stateMutability": "view",
      "type": "function",
      "constant": true
    },
    {
      "inputs": [
        {
          "internalType": "address",
          "name": "_driver",
          "type": "address"
        }
      ],
      "name": "getridesByDriver",
      "outputs": [
        {
          "components": [
            {
              "internalType": "uint256",
              "name": "rideId",
              "type": "uint256"
            },
            {
              "internalType": "uint256",
              "name": "fare",
              "type": "uint256"
            },
            {
              "internalType": "uint256",
              "name": "totalFare",
              "type": "uint256"
            },
            {
              "internalType": "string",
              "name": "pickup",
              "type": "string"
            },
            {
              "internalType": "string",
              "name": "dropoff",
              "type": "string"
            },
            {
              "internalType": "address",
              "name": "driver",
              "type": "address"
            },
            {
              "internalType": "uint256",
              "name": "capacity",
              "type": "uint256"
            },
            {
              "internalType": "address[]",
              "name": "passengers",
              "type": "address[]"
            },
            {
              "internalType": "uint256",
              "name": "departure",
              "type": "uint256"
            },
            {
              "internalType": "uint256",
              "name": "distance",
              "type": "uint256"
            },
            {
              "internalType": "uint256",
              "name": "rate",
              "type": "uint256"
            },
            {
              "internalType": "enum RideSharing.STATUS",
              "name": "status",
              "type": "uint8"
            },
            {
              "internalType": "uint256",
              "name": "rating",
              "type": "uint256"
            }
          ],
          "internalType": "struct RideSharing.Ride[]",
          "name": "",
          "type": "tuple[]"
        }
      ],
      "stateMutability": "view",
      "type": "function",
      "constant": true
    },
    {
      "inputs": [
        {
          "internalType": "address",
          "name": "_passenger",
          "type": "address"
        },
        {
          "internalType": "enum RideSharing.STATUS",
          "name": "_status",
          "type": "uint8"
        }
      ],
      "name": "getRidesByPassenger",
      "outputs": [
        {
          "components": [
            {
              "internalType": "uint256",
              "name": "rideId",
              "type": "uint256"
            },
            {
              "internalType": "uint256",
              "name": "fare",
              "type": "uint256"
            },
            {
              "internalType": "uint256",
              "name": "totalFare",
              "type": "uint256"
            },
            {
              "internalType": "string",
              "name": "pickup",
              "type": "string"
            },
            {
              "internalType": "string",
              "name": "dropoff",
              "type": "string"
            },
            {
              "internalType": "address",
              "name": "driver",
              "type": "address"
            },
            {
              "internalType": "uint256",
              "name": "capacity",
              "type": "uint256"
            },
            {
              "internalType": "address[]",
              "name": "passengers",
              "type": "address[]"
            },
            {
              "internalType": "uint256",
              "name": "departure",
              "type": "uint256"
            },
            {
              "internalType": "uint256",
              "name": "distance",
              "type": "uint256"
            },
            {
              "internalType": "uint256",
              "name": "rate",
              "type": "uint256"
            },
            {
              "internalType": "enum RideSharing.STATUS",
              "name": "status",
              "type": "uint8"
            },
            {
              "internalType": "uint256",
              "name": "rating",
              "type": "uint256"
            }
          ],
          "internalType": "struct RideSharing.Ride[]",
          "name": "",
          "type": "tuple[]"
        }
      ],
      "stateMutability": "view",
      "type": "function",
      "constant": true
    },
    {
      "inputs": [
        {
          "internalType": "uint256",
          "name": "_rideId",
          "type": "uint256"
        }
      ],
      "name": "joinRide",
      "outputs": [],
      "stateMutability": "payable",
      "type": "function",
      "payable": true
    },
    {
      "inputs": [
        {
          "internalType": "uint256",
          "name": "_rideId",
          "type": "uint256"
        }
      ],
      "name": "startRide",
      "outputs": [],
      "stateMutability": "nonpayable",
      "type": "function"
    },
    {
      "inputs": [
        {
          "internalType": "uint256",
          "name": "_rideId",
          "type": "uint256"
        },
        {
          "internalType": "address",
          "name": "_passenger",
          "type": "address"
        }
      ],
      "name": "cancelRide",
      "outputs": [],
      "stateMutability": "nonpayable",
      "type": "function"
    },
    {
      "inputs": [
        {
          "internalType": "uint256",
          "name": "_rideId",
          "type": "uint256"
        }
      ],
      "name": "passengerIsReady",
      "outputs": [],
      "stateMutability": "nonpayable",
      "type": "function"
    },
    {
      "inputs": [
        {
          "internalType": "uint256",
          "name": "_rideId",
          "type": "uint256"
        },
        {
          "internalType": "string",
          "name": "_destination",
          "type": "string"
        },
        {
          "internalType": "uint256",
          "name": "_distance",
          "type": "uint256"
        }
      ],
      "name": "passengerIsFinished",
      "outputs": [],
      "stateMutability": "payable",
      "type": "function",
      "payable": true
    },
    {
      "inputs": [
        {
          "internalType": "uint256",
          "name": "_rideId",
          "type": "uint256"
        },
        {
          "internalType": "uint256",
          "name": "_rating",
          "type": "uint256"
        }
      ],
      "name": "rateDriver",
      "outputs": [],
      "stateMutability": "nonpayable",
      "type": "function"
    },
    {
      "inputs": [
        {
          "internalType": "uint256",
          "name": "_rideId",
          "type": "uint256"
        }
      ],
      "name": "completeJourney",
      "outputs": [],
      "stateMutability": "nonpayable",
      "type": "function"
    },
    {
      "inputs": [
        {
          "internalType": "address",
          "name": "_driver",
          "type": "address"
        }
      ],
      "name": "getReward",
      "outputs": [
        {
          "internalType": "uint256",
          "name": "",
          "type": "uint256"
        }
      ],
      "stateMutability": "view",
      "type": "function",
      "constant": true
    },
    {
      "inputs": [
        {
          "internalType": "address",
          "name": "_driver",
          "type": "address"
        }
      ],
      "name": "getDriverRating",
      "outputs": [
        {
          "internalType": "uint256",
          "name": "",
          "type": "uint256"
        }
      ],
      "stateMutability": "view",
      "type": "function",
      "constant": true
    },
    {
      "inputs": [
        {
          "internalType": "address",
          "name": "_driver",
          "type": "address"
        }
      ],
      "name": "rideCompleted",
      "outputs": [
        {
          "internalType": "uint256",
          "name": "",
          "type": "uint256"
        }
      ],
      "stateMutability": "view",
      "type": "function",
      "constant": true
    },
    {
      "inputs": [
        {
          "internalType": "address",
          "name": "_passenger",
          "type": "address"
        }
      ],
      "name": "rideCompletedPassenger",
      "outputs": [
        {
          "internalType": "uint256",
          "name": "",
          "type": "uint256"
        }
      ],
      "stateMutability": "view",
      "type": "function",
      "constant": true
    }
  ],
  "bytecode": "0x608060405234801561001057600080fd5b5061325f806100206000396000f3fe60806040526004361061011f5760003560e01c80638d2cba77116100a0578063d538109a11610064578063d538109a14610316578063d936e81d14610336578063e0daace614610356578063e9c14b1e14610376578063f3626438146103965761011f565b80638d2cba7714610283578063b3f13cc5146102a3578063c00007b0146102b6578063d29e8735146102d6578063d300103a146102f65761011f565b80634fc3877d116100e75780634fc3877d146101dc578063676764eb146101fc57806369abfa5d1461021c578063787660c31461023c5780637c7b0ff4146102515761011f565b806301f32206146101245780632f1b0b9214610139578063321b3c291461016f578063371f350a1461019c5780633ba9137b146101bc575b600080fd5b61013761013236600461283b565b6103b6565b005b34801561014557600080fd5b506101596101543660046127e1565b610792565b6040516101669190613094565b60405180910390f35b34801561017b57600080fd5b5061018f61018a366004612802565b6107a4565b6040516101669190612a39565b3480156101a857600080fd5b506101376101b736600461283b565b610d1a565b3480156101c857600080fd5b506101596101d73660046127e1565b610e49565b3480156101e857600080fd5b506101376101f7366004612853565b610e5b565b34801561020857600080fd5b506101596102173660046127e1565b61145d565b34801561022857600080fd5b5061013761023736600461283b565b6114ca565b34801561024857600080fd5b5061018f611730565b34801561025d57600080fd5b5061027161026c36600461283b565b611ac4565b6040516101669695949392919061309d565b34801561028f57600080fd5b5061018f61029e3660046127e1565b611b80565b6101376102b136600461287e565b611eef565b3480156102c257600080fd5b506101596102d13660046127e1565b6120b3565b3480156102e257600080fd5b506101596102f136600461283b565b6120ce565b34801561030257600080fd5b506101376103113660046128cc565b6120e0565b34801561032257600080fd5b506101376103313660046128ed565b6121c9565b34801561034257600080fd5b506101596103513660046127e1565b612293565b34801561036257600080fd5b506101596103713660046127e1565b6122c1565b34801561038257600080fd5b5061013761039136600461283b565b6122d3565b3480156103a257600080fd5b506101596103b13660046127e1565b6123dd565b600c5481106103e05760405162461bcd60e51b81526004016103d790612bdc565b60405180910390fd5b600081815260046020526040812090600b82015460ff16600381111561041657634e487b7160e01b600052602160045260246000fd5b146104335760405162461bcd60e51b81526004016103d790612b5c565b60058101546001600160a01b03163314156104605760405162461bcd60e51b81526004016103d790612ba5565b6106ca81604051806101a001604052908160008201548152602001600182015481526020016002820154815260200160038201805461049e9061317d565b80601f01602080910402602001604051908101604052809291908181526020018280546104ca9061317d565b80156105175780601f106104ec57610100808354040283529160200191610517565b820191906000526020600020905b8154815290600101906020018083116104fa57829003601f168201915b505050505081526020016004820180546105309061317d565b80601f016020809104026020016040519081016040528092919081815260200182805461055c9061317d565b80156105a95780601f1061057e576101008083540402835291602001916105a9565b820191906000526020600020905b81548152906001019060200180831161058c57829003601f168201915b505050505081526020016005820160009054906101000a90046001600160a01b03166001600160a01b03166001600160a01b03168152602001600682015481526020016007820180548060200260200160405190810160405280929190818152602001828054801561064457602002820191906000526020600020905b81546001600160a01b03168152600190910190602001808311610626575b50505091835250506008820154602082015260098201546040820152600a8201546060820152600b82015460809091019060ff16600381111561069757634e487b7160e01b600052602160045260246000fd5b60038111156106b657634e487b7160e01b600052602160045260246000fd5b8152602001600c82015481525050336123f8565b156106e75760405162461bcd60e51b81526004016103d790612f55565b600681015460078201541061070e5760405162461bcd60e51b81526004016103d790612d49565b600082815260046020526040902060010154341461073e5760405162461bcd60e51b81526004016103d790612ff1565b6007018054600181810183556000928352602080842090920180546001600160a01b031916339081179091558352600382526040808420805460ff19169055600a8352832080549182018155835291200155565b60066020526000908152604090205481565b6001600160a01b0382166000908152600a6020908152604080832080548251818502810185019093528083526060949383018282801561080357602002820191906000526020600020905b8154815260200190600101908083116107ef575b505050505090506000815167ffffffffffffffff81111561083457634e487b7160e01b600052604160045260246000fd5b60405190808252806020026020018201604052801561086d57816020015b61085a612620565b8152602001906001900390816108525790505b5090506000805b8351811015610c365785600381111561089d57634e487b7160e01b600052602160045260246000fd5b600460008684815181106108c157634e487b7160e01b600052603260045260246000fd5b6020908102919091018101518252810191909152604001600020600b015460ff16600381111561090157634e487b7160e01b600052602160045260246000fd5b14801561094b575060006004600086848151811061092f57634e487b7160e01b600052603260045260246000fd5b60200260200101518152602001908152602001600020600a0154115b15610c24576004600085838151811061097457634e487b7160e01b600052603260045260246000fd5b60200260200101518152602001908152602001600020604051806101a00160405290816000820154815260200160018201548152602001600282015481526020016003820180546109c49061317d565b80601f01602080910402602001604051908101604052809291908181526020018280546109f09061317d565b8015610a3d5780601f10610a1257610100808354040283529160200191610a3d565b820191906000526020600020905b815481529060010190602001808311610a2057829003601f168201915b50505050508152602001600482018054610a569061317d565b80601f0160208091040260200160405190810160405280929190818152602001828054610a829061317d565b8015610acf5780601f10610aa457610100808354040283529160200191610acf565b820191906000526020600020905b815481529060010190602001808311610ab257829003601f168201915b505050505081526020016005820160009054906101000a90046001600160a01b03166001600160a01b03166001600160a01b031681526020016006820154815260200160078201805480602002602001604051908101604052809291908181526020018280548015610b6a57602002820191906000526020600020905b81546001600160a01b03168152600190910190602001808311610b4c575b50505091835250506008820154602082015260098201546040820152600a8201546060820152600b82015460809091019060ff166003811115610bbd57634e487b7160e01b600052602160045260246000fd5b6003811115610bdc57634e487b7160e01b600052602160045260246000fd5b8152602001600c82015481525050838381518110610c0a57634e487b7160e01b600052603260045260246000fd5b60200260200101819052508180610c20906131b8565b9250505b80610c2e816131b8565b915050610874565b5060008167ffffffffffffffff811115610c6057634e487b7160e01b600052604160045260246000fd5b604051908082528060200260200182016040528015610c9957816020015b610c86612620565b815260200190600190039081610c7e5790505b50905060005b82811015610d0d57838181518110610cc757634e487b7160e01b600052603260045260246000fd5b6020026020010151828281518110610cef57634e487b7160e01b600052603260045260246000fd5b60200260200101819052508080610d05906131b8565b915050610c9f565b5093505050505b92915050565b600c54811115610d3c5760405162461bcd60e51b81526004016103d790612d20565b600081815260046020526040902060058101546001600160a01b0316331415610d775760405162461bcd60e51b81526004016103d79061305f565b6007810154610d985760405162461bcd60e51b81526004016103d790612e89565b6000805b6007830154811015610e2657336001600160a01b0316836007018281548110610dd557634e487b7160e01b600052603260045260246000fd5b6000918252602090912001546001600160a01b03161415610e1457336000908152600360205260409020805460ff191660019081179091559150610e26565b80610e1e816131b8565b915050610d9c565b5080610e445760405162461bcd60e51b81526004016103d790612c66565b505050565b60076020526000908152604090205481565b60008281526004602090815260408083206001600160a01b0385168452600a83529281902081516101a0810183528454815260018501549381019390935260028401549183019190915260038301805491926110f09290918591606084019190610ec49061317d565b80601f0160208091040260200160405190810160405280929190818152602001828054610ef09061317d565b8015610f3d5780601f10610f1257610100808354040283529160200191610f3d565b820191906000526020600020905b815481529060010190602001808311610f2057829003601f168201915b50505050508152602001600482018054610f569061317d565b80601f0160208091040260200160405190810160405280929190818152602001828054610f829061317d565b8015610fcf5780601f10610fa457610100808354040283529160200191610fcf565b820191906000526020600020905b815481529060010190602001808311610fb257829003601f168201915b505050505081526020016005820160009054906101000a90046001600160a01b03166001600160a01b03166001600160a01b03168152602001600682015481526020016007820180548060200260200160405190810160405280929190818152602001828054801561106a57602002820191906000526020600020905b81546001600160a01b0316815260019091019060200180831161104c575b50505091835250506008820154602082015260098201546040820152600a8201546060820152600b82015460809091019060ff1660038111156110bd57634e487b7160e01b600052602160045260246000fd5b60038111156110dc57634e487b7160e01b600052602160045260246000fd5b8152602001600c82015481525050846123f8565b15611386576000600b83015460ff16600381111561111e57634e487b7160e01b600052602160045260246000fd5b1461113b5760405162461bcd60e51b81526004016103d790612ce9565b60018201546000805b600785015481101561132a57856001600160a01b031685600701828154811061117d57634e487b7160e01b600052603260045260246000fd5b6000918252602090912001546001600160a01b0316141561131857600785018054600193506111ad908490613166565b815481106111cb57634e487b7160e01b600052603260045260246000fd5b6000918252602090912001546007860180546001600160a01b03909216918390811061120757634e487b7160e01b600052603260045260246000fd5b9060005260206000200160006101000a8154816001600160a01b0302191690836001600160a01b031602179055508460070180548061125657634e487b7160e01b600052603160045260246000fd5b600082815260209020810160001990810180546001600160a01b03191690550190558354849061128890600190613166565b815481106112a657634e487b7160e01b600052603260045260246000fd5b90600052602060002001548488815481106112d157634e487b7160e01b600052603260045260246000fd5b9060005260206000200181905550838054806112fd57634e487b7160e01b600052603160045260246000fd5b6001900381819060005260206000200160009055905561132a565b80611322816131b8565b915050611144565b50806113485760405162461bcd60e51b81526004016103d790613028565b6040516001600160a01b0386169083156108fc029084906000818181858888f1935050505015801561137e573d6000803e3d6000fd5b505050611457565b60058201546001600160a01b031633146113b25760405162461bcd60e51b81526004016103d790612de5565b6007820154156114475760005b6007830154811015611445578260070181815481106113ee57634e487b7160e01b600052603260045260246000fd5b600091825260208220015460018501546040516001600160a01b039092169281156108fc029290818181858888f19350505050158015611432573d6000803e3d6000fd5b508061143d816131b8565b9150506113bf565b505b600b8201805460ff191660021790555b50505050565b6001600160a01b0381166000908152600a60209081526040808320805482518185028101850190935280835284938301828280156114ba57602002820191906000526020600020905b8154815260200190600101908083116114a6575b505092519450505050505b919050565b600081815260046020526040902060058101546001600160a01b031633146115045760405162461bcd60e51b81526004016103d790612e0d565b6001600b82015460ff16600381111561152d57634e487b7160e01b600052602160045260246000fd5b1461154a5760405162461bcd60e51b81526004016103d790612dae565b600781015461156b5760405162461bcd60e51b81526004016103d790612ec0565b61157482612474565b6115905760405162461bcd60e51b81526004016103d790612ef7565b600781015460018201546000916115a691613147565b82600201546115b5919061311b565b90506000600a6115c6836008613147565b6115d09190613133565b905060006115de8284613166565b336000908152600760205260409020549091506115fd906005906131d3565b1580156116195750336000908152600660205260409020546003105b1561167c576005840154336000908152600860205260408082205490516001600160a01b039093169281156108fc0292818181858888f19350505050158015611666573d6000803e3d6000fd5b50336000908152600860205260408120556116bc565b3360009081526008602052604090205461169790829061311b565b33600090815260086020526040812080549091906116b690849061311b565b90915550505b60058401546040516001600160a01b039091169083156108fc029084906000818181858888f193505050501580156116f8573d6000803e3d6000fd5b50336000908152600760205260408120805491611714836131b8565b90915550505050600b91909101805460ff191660031790555050565b60606000600c5467ffffffffffffffff81111561175d57634e487b7160e01b600052604160045260246000fd5b60405190808252806020026020018201604052801561179657816020015b611783612620565b81526020019060019003908161177b5790505b5090506000805b600c54811015611abc576000818152600460205260408120600b015460ff1660038111156117db57634e487b7160e01b600052602160045260246000fd5b1480156117f8575060008181526004602052604090206001015415155b15611aaa5760046000828152602001908152602001600020604051806101a001604052908160008201548152602001600182015481526020016002820154815260200160038201805461184a9061317d565b80601f01602080910402602001604051908101604052809291908181526020018280546118769061317d565b80156118c35780601f10611898576101008083540402835291602001916118c3565b820191906000526020600020905b8154815290600101906020018083116118a657829003601f168201915b505050505081526020016004820180546118dc9061317d565b80601f01602080910402602001604051908101604052809291908181526020018280546119089061317d565b80156119555780601f1061192a57610100808354040283529160200191611955565b820191906000526020600020905b81548152906001019060200180831161193857829003601f168201915b505050505081526020016005820160009054906101000a90046001600160a01b03166001600160a01b03166001600160a01b0316815260200160068201548152602001600782018054806020026020016040519081016040528092919081815260200182805480156119f057602002820191906000526020600020905b81546001600160a01b031681526001909101906020018083116119d2575b50505091835250506008820154602082015260098201546040820152600a8201546060820152600b82015460809091019060ff166003811115611a4357634e487b7160e01b600052602160045260246000fd5b6003811115611a6257634e487b7160e01b600052602160045260246000fd5b8152602001600c82015481525050838381518110611a9057634e487b7160e01b600052603260045260246000fd5b60200260200101819052508180611aa6906131b8565b9250505b80611ab4816131b8565b91505061179d565b509091505090565b60008181526004602090815260408083208054600682015460018301546005840154600b8501546007860180548851818b0281018b019099528089528a998a998a996060998b9991989097919690956001600160a01b0390921694919360ff90911692918491830182828015611b6357602002820191906000526020600020905b81546001600160a01b03168152600190910190602001808311611b45575b505050505091509650965096509650965096505091939550919395565b6001600160a01b038116600090815260096020526040812080546060929067ffffffffffffffff811115611bc457634e487b7160e01b600052604160045260246000fd5b604051908082528060200260200182016040528015611bfd57816020015b611bea612620565b815260200190600190039081611be25790505b50905060005b8254811015611ee75760046000848381548110611c3057634e487b7160e01b600052603260045260246000fd5b90600052602060002001548152602001908152602001600020604051806101a0016040529081600082015481526020016001820154815260200160028201548152602001600382018054611c839061317d565b80601f0160208091040260200160405190810160405280929190818152602001828054611caf9061317d565b8015611cfc5780601f10611cd157610100808354040283529160200191611cfc565b820191906000526020600020905b815481529060010190602001808311611cdf57829003601f168201915b50505050508152602001600482018054611d159061317d565b80601f0160208091040260200160405190810160405280929190818152602001828054611d419061317d565b8015611d8e5780601f10611d6357610100808354040283529160200191611d8e565b820191906000526020600020905b815481529060010190602001808311611d7157829003601f168201915b505050505081526020016005820160009054906101000a90046001600160a01b03166001600160a01b03166001600160a01b031681526020016006820154815260200160078201805480602002602001604051908101604052809291908181526020018280548015611e2957602002820191906000526020600020905b81546001600160a01b03168152600190910190602001808311611e0b575b50505091835250506008820154602082015260098201546040820152600a8201546060820152600b82015460809091019060ff166003811115611e7c57634e487b7160e01b600052602160045260246000fd5b6003811115611e9b57634e487b7160e01b600052602160045260246000fd5b8152602001600c82015481525050828281518110611ec957634e487b7160e01b600052603260045260246000fd5b60200260200101819052508080611edf906131b8565b915050611c03565b509392505050565b600c54831115611f115760405162461bcd60e51b81526004016103d790612d20565b600083815260046020526040902060058101546001600160a01b0316331415611f4c5760405162461bcd60e51b81526004016103d79061305f565b6001600b82015460ff166003811115611f7557634e487b7160e01b600052602160045260246000fd5b14611f925760405162461bcd60e51b81526004016103d790612cb2565b6000805b600783015481101561208e57336001600160a01b0316836007018281548110611fcf57634e487b7160e01b600052603260045260246000fd5b6000918252602090912001546001600160a01b0316141561207c5760008681526020818152604080832033808552908352818420349055898452600183528184208185528352818420889055898452600283528184209084528252909120865161203b928801906126b0565b50336000908152600560205260408120805460ff191660019081179091556002850180549194503492909161207190849061311b565b9091555061208e9050565b80612086816131b8565b915050611f96565b50806120ac5760405162461bcd60e51b81526004016103d790612c66565b5050505050565b6001600160a01b031660009081526008602052604090205490565b600b6020526000908152604090205481565b600060046000848152602001908152602001600020905061213581604051806101a001604052908160008201548152602001600182015481526020016002820154815260200160038201805461049e9061317d565b6121515760405162461bcd60e51b81526004016103d790612f83565b6003600b82015460ff16600381111561217a57634e487b7160e01b600052602160045260246000fd5b1461218457600080fd5b60078101546121939083613133565b60058201546001600160a01b0316600090815260066020526040812080549091906121bf90849061311b565b9091555050505050565b600c546000818152600460209081526040909120918255600182018990556005820180546001600160a01b03191633179055600682018890558651612216916003840191908901906126b0565b50845161222c90600483019060208801906126b0565b50600a8101839055600980820183905560088201859055600b8201805460ff19169055336000908152602091825260408120600c805482546001810184559284529383209091019290925581549190612284836131b8565b91905055505050505050505050565b6001600160a01b0381166000908152600760209081526040808320546006909252822054610d149190613133565b60086020526000908152604090205481565b600c5481106122f45760405162461bcd60e51b81526004016103d790612bdc565b60008181526004602052604090206005810154612319906001600160a01b031661250a565b6123355760405162461bcd60e51b81526004016103d790612c09565b6000600b82015460ff16600381111561235e57634e487b7160e01b600052602160045260246000fd5b1461237b5760405162461bcd60e51b81526004016103d790612e52565b60058101546001600160a01b031633146123a75760405162461bcd60e51b81526004016103d790612fba565b6123b082612594565b6123cc5760405162461bcd60e51b81526004016103d790612d77565b600b01805460ff1916600117905550565b6001600160a01b031660009081526007602052604090205490565b6000805b8360e001515181101561246a57826001600160a01b03168460e00151828151811061243757634e487b7160e01b600052603260045260246000fd5b60200260200101516001600160a01b03161415612458576001915050610d14565b80612462816131b8565b9150506123fc565b5060009392505050565b6000818152600460205260408120815b600782015481101561250057600560008360070183815481106124b757634e487b7160e01b600052603260045260246000fd5b60009182526020808320909101546001600160a01b0316835282019290925260400190205460ff166124ee576000925050506114c5565b806124f8816131b8565b915050612484565b5060019392505050565b600060015b600c54811161258b5760008181526004602052604090206001600b82015460ff16600381111561254f57634e487b7160e01b600052602160045260246000fd5b14156125785760058101546001600160a01b0385811691161415612578576000925050506114c5565b5080612583816131b8565b91505061250f565b50600192915050565b6000818152600460205260408120815b600782015481101561250057600360008360070183815481106125d757634e487b7160e01b600052603260045260246000fd5b60009182526020808320909101546001600160a01b0316835282019290925260400190205460ff1661260e576000925050506114c5565b80612618816131b8565b9150506125a4565b604051806101a00160405280600081526020016000815260200160008152602001606081526020016060815260200160006001600160a01b031681526020016000815260200160608152602001600081526020016000815260200160008152602001600060038111156126a357634e487b7160e01b600052602160045260246000fd5b8152602001600081525090565b8280546126bc9061317d565b90600052602060002090601f0160209004810192826126de5760008555612724565b82601f106126f757805160ff1916838001178555612724565b82800160010185558215612724579182015b82811115612724578251825591602001919060010190612709565b50612730929150612734565b5090565b5b808211156127305760008155600101612735565b80356001600160a01b03811681146114c557600080fd5b600082601f830112612770578081fd5b813567ffffffffffffffff8082111561278b5761278b613213565b604051601f8301601f1916810160200182811182821017156127af576127af613213565b6040528281528483016020018610156127c6578384fd5b82602086016020830137918201602001929092529392505050565b6000602082840312156127f2578081fd5b6127fb82612749565b9392505050565b60008060408385031215612814578081fd5b61281d83612749565b9150602083013560048110612830578182fd5b809150509250929050565b60006020828403121561284c578081fd5b5035919050565b60008060408385031215612865578182fd5b8235915061287560208401612749565b90509250929050565b600080600060608486031215612892578081fd5b83359250602084013567ffffffffffffffff8111156128af578182fd5b6128bb86828701612760565b925050604084013590509250925092565b600080604083850312156128de578182fd5b50508035926020909101359150565b600080600080600080600060e0888a031215612907578283fd5b8735965060208801359550604088013567ffffffffffffffff8082111561292c578485fd5b6129388b838c01612760565b965060608a013591508082111561294d578485fd5b5061295a8a828b01612760565b979a969950949760808101359660a0820135965060c090910135945092505050565b6001600160a01b03169052565b6000815180845260208085019450808401835b838110156129c15781516001600160a01b03168752958201959082019060010161299c565b509495945050505050565b600481106129ea57634e487b7160e01b600052602160045260246000fd5b9052565b60008151808452815b81811015612a13576020818501810151868301820152016129f7565b81811115612a245782602083870101525b50601f01601f19169290920160200192915050565b60208082528251828201819052600091906040908185019080840286018301878501865b83811015612b4e57603f1989840301855281516101a081518552888201518986015287820151888601526060808301518282880152612a9e838801826129ee565b9250505060808083015186830382880152612ab983826129ee565b9250505060a080830151612acf8288018261297c565b505060c0828101519086015260e08083015186830382880152612af28382612989565b9250505061010080830151818701525061012080830151818701525061014080830151818701525061016080830151612b2d828801826129cc565b50506101809182015194909101939093529386019390860190600101612a5d565b509098975050505050505050565b60208082526029908201527f526964652073686f756c642062652063726561746564206f7220616c726561646040820152681e481cdd185c9d195960ba1b606082015260800190565b6020808252601b908201527f4472697665722063616e6e6f74206a6f696e2074686520726964650000000000604082015260600190565b602080825260139082015272149a591948191bd95cc81b9bdd08195e1a5cdd606a1b604082015260600190565b60208082526037908201527f596f752063616e6e6f7420737461727420616e6f74686572207269646520626560408201527f666f726520636f6d706c6574696e672063757272656e74000000000000000000606082015260800190565b6020808252602c908201527f4f6e6c79206a6f696e65642070617373656e6765722063616e2063616c6c207460408201526b3434b990333ab731ba34b7b760a11b606082015260800190565b6020808252601d908201527f5269646520686173206e6f74206265656e207374617274656420796574000000604082015260600190565b6020808252601c908201527f526964652063616e6e6f742062652063616e63656c6564206e6f772e00000000604082015260600190565b6020808252600f908201526e125b9d985b1a59081c9a5919481251608a1b604082015260600190565b602080825260149082015273149a5919481a5cc8185b1c9958591e48199d5b1b60621b604082015260600190565b6020808252601c908201527f416c6c2050617373656e6765727320617265206e6f7420726561647900000000604082015260600190565b6020808252601c908201527f4a6f75726e657920686173206e6f742079657420737461727465642e00000000604082015260600190565b6020808252600e908201526d36bab9ba10313290323934bb32b960911b604082015260600190565b60208082526025908201527f4f6e6c79206472697665722063616e20636f6d706c65746520746865206a6f75604082015264393732bc9760d91b606082015260800190565b6020808252601f908201527f526964652073686f756c64206265206372656174656420746f20737461727400604082015260600190565b6020808252601e908201527f4e6f2070617373656e67657273206a6f696e6564207468697320726964650000604082015260600190565b6020808252601b908201527f4e6f2070617373656e6765727320696e207468697320726964652e0000000000604082015260600190565b602080825260409082018190527f416c6c2070617373656e67657273206e65656420746f2061636b6e6f776c6564908201527f6765207468617420746865206a6f75726e65792069732066696e69736865642e606082015260800190565b6020808252601490820152731c9a59195c88185b1c9958591e481a9bda5b995960621b604082015260600190565b6020808252601b908201527f4d75737420626520612070617373656e67657220746f20726174650000000000604082015260600190565b6020808252601b908201527f52696465722063616e6e6f742073746172742074686520726964650000000000604082015260600190565b60208082526018908201527f4661726520616d6f756e74206e6f74206d61746368696e670000000000000000604082015260600190565b6020808252601c908201527f50617373656e676572206e6f7420666f756e6420696e20726964652e00000000604082015260600190565b6020808252818101527f4472697665722063616e6e6f742063616c6c20746869732066756e6374696f6e604082015260600190565b90815260200190565b600060c082018883526020888185015287604085015260018060a01b03808816606086015260c0608086015282875180855260e0870191508389019450855b818110156130fa5785518416835294840194918401916001016130dc565b50508094505050505061311060a08301846129cc565b979650505050505050565b6000821982111561312e5761312e6131e7565b500190565b600082613142576131426131fd565b500490565b6000816000190483118215151615613161576131616131e7565b500290565b600082821015613178576131786131e7565b500390565b60028104600182168061319157607f821691505b602082108114156131b257634e487b7160e01b600052602260045260246000fd5b50919050565b60006000198214156131cc576131cc6131e7565b5060010190565b6000826131e2576131e26131fd565b500690565b634e487b7160e01b600052601160045260246000fd5b634e487b7160e01b600052601260045260246000fd5b634e487b7160e01b600052604160045260246000fdfea26469706673582212205324c72c05c57531e2a8887e5c8e161aa1d549ba2a0bc351b014a1e0832237ca64736f6c63430008000033",
  "immutableReferences": {},
  "source": "// SPDX-License-Identifier: MIT\npragma solidity ^0.8.0;\n\ncontract RideSharing {\n    enum STATUS {\n        CREATED,\n        STARTED,\n        CANCELED,\n        FINISHED\n    }\n\n    struct Ride {\n        uint256 rideId;\n        uint256 fare;\n        uint256 totalFare;\n        string pickup;\n        string dropoff;\n        address driver;\n        uint256 capacity;\n        address[] passengers;\n        uint departure;\n        uint distance;\n        uint rate;\n        STATUS status;\n        uint rating;\n    }\n    mapping(uint => mapping(address => uint256)) passengerFinalFare;\n    mapping(uint => mapping(address => uint256)) passengerTravelDistance;\n    mapping(uint => mapping(address => string)) passengerDropoff;\n    mapping(address => bool) isPassengerReady;\n    mapping(uint => Ride) rides;\n    mapping(address => bool) isPassengerFinished;\n    mapping(address => uint256) public DriverRatings;\n    mapping(address => uint256) public RideCompleted;\n    mapping(address => uint256) public DriverReward;\n    mapping(address => uint[]) ridesByDriver;\n    mapping(address => uint[]) ridesByPassenger;\n    mapping(uint => uint) public rideJoiningAmounts;\n\n    uint rideCounter;\n\n    function addRide(\n        uint256 _fare,\n        uint256 _capacity,\n        string memory _pickup,\n        string memory _dropoff,\n        uint _departure,\n        uint _rate,\n        uint _distance\n    ) public {\n        Ride storage ride = rides[rideCounter];\n        ride.rideId = rideCounter;\n        ride.fare = _fare;\n        ride.driver = msg.sender;\n        ride.capacity = _capacity;\n        ride.pickup = _pickup;\n        ride.dropoff = _dropoff;\n        ride.rate = _rate;\n        ride.distance = _distance;\n        ride.departure = _departure;\n        ride.status = STATUS.CREATED;\n        ridesByDriver[msg.sender].push(rideCounter);\n        rideCounter++;\n    }\n\n    function getRide(\n        uint _rideId\n    )\n        public\n        view\n        returns (uint, uint, uint256, address, address[] memory, STATUS)\n    {\n        Ride storage ride = rides[_rideId];\n        return (\n            ride.rideId,\n            ride.capacity,\n            ride.fare,\n            ride.driver,\n            ride.passengers,\n            ride.status\n        );\n    }\n\n    function getAllRides() public view returns (Ride[] memory) {\n        Ride[] memory allRides = new Ride[](rideCounter);\n        uint availableCount = 0;\n        for (uint i = 0; i < rideCounter; i++) {\n            if (rides[i].status == STATUS.CREATED && rides[i].fare != 0) {\n                allRides[availableCount] = rides[i];\n                availableCount++;\n            }\n        }\n        return allRides;\n    }\n\n    function getridesByDriver(\n        address _driver\n    ) public view returns (Ride[] memory) {\n        uint[] storage driverRideIds = ridesByDriver[_driver];\n        Ride[] memory ridesByDriver_ = new Ride[](driverRideIds.length);\n        for (uint i = 0; i < driverRideIds.length; i++) {\n            ridesByDriver_[i] = rides[driverRideIds[i]];\n        }\n        return ridesByDriver_;\n    }\n\n    function getRidesByPassenger(\n        address _passenger,\n        STATUS _status\n    ) public view returns (Ride[] memory) {\n        uint[] memory rideIds = ridesByPassenger[_passenger];\n        Ride[] memory passengerRides = new Ride[](rideIds.length);\n        uint counter = 0;\n        for (uint i = 0; i < rideIds.length; i++) {\n            if (\n                rides[rideIds[i]].status == _status &&\n                rides[rideIds[i]].rate > 0\n            ) {\n                passengerRides[counter] = rides[rideIds[i]];\n                counter++;\n            }\n        }\n        Ride[] memory result = new Ride[](counter);\n        for (uint j = 0; j < counter; j++) {\n            result[j] = passengerRides[j];\n        }\n        return result;\n    }\n\n    function hasActiveRide(address _user) internal view returns (bool) {\n        for (uint i = 1; i <= rideCounter; i++) {\n            Ride storage ride = rides[i];\n            if (ride.status == STATUS.STARTED) {\n                if (ride.driver == _user) {\n                    return false;\n                }\n            }\n        }\n        return true;\n    }\n\n    function joinRide(uint _rideId) public payable {\n        require(_rideId < rideCounter, \"Ride does not exist\");\n        Ride storage ride = rides[_rideId];\n        require(\n            ride.status == STATUS.CREATED,\n            \"Ride should be created or already started\"\n        );\n        require(msg.sender != ride.driver, \"Driver cannot join the ride\");\n        require(!hasJoined(ride, msg.sender), \"rider already joined\");\n        require(ride.passengers.length < ride.capacity, \"Ride is already full\");\n        require(msg.value == rides[_rideId].fare, \"Fare amount not matching\");\n        ride.passengers.push(msg.sender);\n        isPassengerReady[msg.sender] = false;\n        ridesByPassenger[msg.sender].push(_rideId);\n    }\n\n    function areAllPassengersReady(uint _rideId) internal view returns (bool) {\n        Ride storage ride = rides[_rideId];\n        for (uint i = 0; i < ride.passengers.length; i++) {\n            if (!isPassengerReady[ride.passengers[i]]) {\n                return false;\n            }\n        }\n        return true;\n    }\n\n    function areAllPassengersFinished(\n        uint _rideId\n    ) internal view returns (bool) {\n        Ride storage ride = rides[_rideId];\n        for (uint i = 0; i < ride.passengers.length; i++) {\n            if (!isPassengerFinished[ride.passengers[i]]) {\n                return false;\n            }\n        }\n        return true;\n    }\n\n    function startRide(uint _rideId) public {\n        require(_rideId < rideCounter, \"Ride does not exist\");\n        Ride storage ride = rides[_rideId];\n        require(\n            hasActiveRide(ride.driver),\n            \"You cannot start another ride before completing current\"\n        );\n        require(\n            ride.status == STATUS.CREATED,\n            \"Ride should be created to start\"\n        );\n        require(msg.sender == ride.driver, \"Rider cannot start the ride\");\n        require(areAllPassengersReady(_rideId), \"All Passengers are not ready\");\n\n        ride.status = STATUS.STARTED;\n    }\n\n    function hasJoined(\n        Ride memory _ride,\n        address _passenger\n    ) internal pure returns (bool) {\n        for (uint i = 0; i < _ride.passengers.length; i++) {\n            if (_ride.passengers[i] == _passenger) {\n                return true;\n            }\n        }\n        return false;\n    }\n\n    function cancelRide(uint _rideId, address _passenger) public {\n        Ride storage ride = rides[_rideId];\n        uint[] storage rideIds = ridesByPassenger[_passenger];\n        \n\n        if (hasJoined(ride, _passenger)) {\n            require(\n                ride.status == STATUS.CREATED,\n                \"Ride cannot be canceled now.\"\n            );\n            uint refundAmount = ride.fare;\n            bool isPassenger = false;\n            for (uint i = 0; i < ride.passengers.length; i++) {\n                if (ride.passengers[i] == _passenger) {\n                    isPassenger = true;\n                    ride.passengers[i] = ride.passengers[\n                        ride.passengers.length - 1\n                    ];\n                    ride.passengers.pop();\n                    rideIds[_rideId] = rideIds[rideIds.length-1];\n                    rideIds.pop();\n                    break;\n                }\n            }\n            require(isPassenger, \"Passenger not found in ride.\");\n            payable(_passenger).transfer(refundAmount);\n        } else {\n            require(msg.sender == ride.driver, \"must be driver\");\n            if (ride.passengers.length != 0) {\n                for (uint i = 0; i < ride.passengers.length; i++) {\n                    payable(ride.passengers[i]).transfer(ride.fare);\n                }\n            }\n            ride.status = STATUS.CANCELED;\n        }\n    }\n\n    function passengerIsReady(uint _rideId) public {\n        require(_rideId <= rideCounter, \"Invalid ride ID\");\n        Ride storage ride = rides[_rideId];\n        require(msg.sender != ride.driver, \"Driver cannot call this function\");\n        require(ride.passengers.length > 0, \"No passengers joined this ride\");\n\n        bool isPassenger = false;\n        for (uint i = 0; i < ride.passengers.length; i++) {\n            if (ride.passengers[i] == msg.sender) {\n                isPassengerReady[msg.sender] = true;\n                isPassenger = true;\n                break;\n            }\n        }\n        require(isPassenger, \"Only joined passenger can call this function\");\n    }\n\n    function passengerIsFinished(\n        uint _rideId,\n        string memory _destination,\n        uint _distance\n    ) public payable {\n        require(_rideId <= rideCounter, \"Invalid ride ID\");\n        Ride storage ride = rides[_rideId];\n        require(msg.sender != ride.driver, \"Driver cannot call this function\");\n        require(ride.status == STATUS.STARTED, \"Ride has not been started yet\");\n        bool isPassenger = false;\n        for (uint i = 0; i < ride.passengers.length; i++) {\n            if (ride.passengers[i] == msg.sender) {\n                passengerFinalFare[_rideId][msg.sender] = msg.value;\n                passengerTravelDistance[_rideId][msg.sender] = _distance;\n                passengerDropoff[_rideId][msg.sender] = _destination;\n                isPassengerFinished[msg.sender] = true;\n                isPassenger = true;\n                ride.totalFare += msg.value;\n                break;\n            }\n        }\n        require(isPassenger, \"Only joined passenger can call this function\");\n    }\n\n    function rateDriver(uint _rideId, uint _rating) public {\n        Ride storage ride = rides[_rideId];\n        require(hasJoined(ride, msg.sender), \"Must be a passenger to rate\");\n        require(ride.status == STATUS.FINISHED);\n        DriverRatings[ride.driver] += (_rating / ride.passengers.length);\n    }\n\n    function completeJourney(uint _rideId) public {\n        Ride storage ride = rides[_rideId];\n        require(\n            msg.sender == ride.driver,\n            \"Only driver can complete the journey.\"\n        );\n        require(ride.status == STATUS.STARTED, \"Journey has not yet started.\");\n        require(ride.passengers.length > 0, \"No passengers in this ride.\");\n        require(\n            areAllPassengersFinished(_rideId),\n            \"All passengers need to acknowledge that the journey is finished.\"\n        );\n        uint256 fare = ride.totalFare + (ride.fare * ride.passengers.length);\n        uint256 driverAmount = (fare * 8) / 10;\n        uint rewardAmount = fare - driverAmount;\n\n        // Check if driver has completed 5 rides and has an average rating of at least 3\n        if (\n            RideCompleted[msg.sender] % 5 == 0 && DriverRatings[msg.sender] > 3\n        ) {\n            payable(ride.driver).transfer(DriverReward[msg.sender]);\n            DriverReward[msg.sender] = 0;\n        } else {\n            DriverReward[msg.sender] += DriverReward[msg.sender] + rewardAmount;\n        }\n        payable(ride.driver).transfer(driverAmount);\n        RideCompleted[msg.sender]++;\n        ride.status = STATUS.FINISHED;\n    }\n\n    function getReward(address _driver) public view returns (uint256) {\n        return DriverReward[_driver];\n    }\n\n    function getDriverRating(address _driver) public view returns (uint256) {\n        return DriverRatings[_driver]/(RideCompleted[_driver]);\n    }\n\n    function rideCompleted(address _driver) public view returns (uint256) {\n        return RideCompleted[_driver];\n    }\n\n    function rideCompletedPassenger(\n        address _passenger\n    ) public view returns (uint256) {\n        uint[] memory rideIds = ridesByPassenger[_passenger];\n        return rideIds.length;\n    }\n}\n",
  "sourcePath": "C:\\Users\\REX M J\\Dibin\\RideApp\\rideapp\\contracts\\RideShare.sol",
  "compiler": {
    "name": "solc",
    "version": "0.8.0+commit.c7dfd78e.Emscripten.clang"
  },
  "schemaVersion": "3.4.13",
  "updatedAt": "2023-04-26T08:34:17.441Z",
  "networkType": "ethereum",
  "devdoc": {
    "kind": "dev",
    "methods": {},
    "version": 1
  },
  "userdoc": {
    "kind": "user",
    "methods": {},
    "version": 1
  }
}